:020000040800F2
:100000000080012059320008F90F0008FB0F00089A
:10001000FD0F0008FF0F000801100008000000009D
:1000200000000000000000000000000003100008B5
:100030000510000800000000071000080910000863
:10004000A9320008A9320008A9320008A932000824
:10005000A9320008A9320008A9320008A932000814
:10006000A9320008A9320008A9320008A932000804
:10007000A9320008A9320008A9320008A9320008F4
:10008000A9320008A9320008A9320008A9320008E4
:1000900011100008A9320008A9320008A93200088E
:1000A000A9320008A9320008A9320008A9320008C4
:1000B000A9320008A9320008A9320008A9320008B4
:1000C000A9320008A9320008A9320008A9320008A4
:1000D000A9320008A9320008A9320008A932000894
:1000E000A9320008A9320008A9320008A932000884
:1000F000A9320008A9320008A9320008A932000874
:10010000A9320008A9320008A9320008A932000863
:10011000A9320008A9320008A9320008A932000853
:10012000A9320008A9320008A9320008A932000843
:10013000A9320008A9320008A9320008A932000833
:10014000A9320008A9320008A9320008A932000823
:10015000A9320008A9320008A9320008A932000813
:10016000A9320008A9320008A9320008A932000803
:10017000A9320008A9320008A932000800000000D6
:08018000A9320008A9320008B1
:1001900010B5054C237833B9044B13B10448AFF3C1
:1001A00000800123237010BD7000002000000000BB
:1001B000FC3B000808B5034B1BB103490348AFF3F0
:1001C000008008BD0000000074000020FC3B000817
:1001D000034613F8012B002AFBD1181A0138704787
:1001E00001F0FF01102A2BDB10F0070F08D010F8E8
:1001F000013B013A8B422DD010F0070F42B3F6D1EC
:10020000F0B441EA012141EA014122F007047FF004
:1002100000070023F0E80256083C85EA010586EA5B
:10022000010685FA47F5A3FA87F586FA47F6A5FA97
:1002300087F68EB9EED1F0BC01F0FF0102F00702A3
:1002400032B110F8013B013A83EA010313B1F8D14E
:100250000020704701387047002D06BF354603382F
:10026000073815F0010F07D1013015F4807F02BF68
:10027000013015F4C03F0130F0BC0138704700BFB9
:1002800053B94AB9002908BF00281CBF4FF0FF31FD
:100290004FF0FF3000F074B9ADF1080C6DE904CEF9
:1002A00000F006F8DDF804E0DDE9022304B0704751
:1002B0002DE9F047089D04468E46002B4DD18A4219
:1002C000944669D9B2FA82F252B101FA02F3C2F14C
:1002D000200120FA01F10CFA02FC41EA030E9440DD
:1002E0004FEA1C48210CBEFBF8F61FFA8CF708FBFE
:1002F00016E341EA034306FB07F199420AD91CEBD6
:10030000030306F1FF3080F01F81994240F21C8107
:10031000023E63445B1AA4B2B3FBF8F008FB10334F
:1003200044EA034400FB07F7A7420AD91CEB040484
:1003300000F1FF3380F00A81A74240F20781644454
:10034000023840EA0640E41B00261DB1D4400023D9
:10035000C5E900433146BDE8F0878B4209D9002D3D
:1003600000F0EF800026C5E9000130463146BDE8C7
:10037000F087B3FA83F6002E4AD18B4202D3824231
:1003800000F2F980841A61EB030301209E46002DE0
:10039000E0D0C5E9004EDDE702B9FFDEB2FA82F235
:1003A000002A40F09280A1EB0C014FEA1C471FFA93
:1003B0008CFE0126200CB1FBF7F307FB131140EA7A
:1003C00001410EFB03F0884208D91CEB010103F147
:1003D000FF3802D2884200F2CB804346091AA4B209
:1003E000B1FBF7F007FB101144EA01440EFB00FEDD
:1003F000A64508D91CEB040400F1FF3102D2A64542
:1004000000F2BB800846A4EB0E0440EA03409CE7E0
:10041000C6F12007B34022FA07FC4CEA030C20FA8D
:1004200007F401FA06F31C43F9404FEA1C4900FAAD
:1004300006F3B1FBF9F8200C1FFA8CFE09FB18112A
:1004400040EA014108FB0EF0884202FA06F20BD99D
:100450001CEB010108F1FF3A80F08880884240F2ED
:100460008580A8F102086144091AA4B2B1FBF9F031
:1004700009FB101144EA014100FB0EFE8E4508D92C
:100480001CEB010100F1FF346CD28E456AD90238B1
:10049000614440EA0840A0FB0294A1EB0E01A14296
:1004A000C846A64656D353D05DB1B3EB080261EB04
:1004B0000E0101FA07F722FA06F3F1401F43C5E9DE
:1004C000007100263146BDE8F087C2F12003D84014
:1004D0000CFA02FC21FA03F3914001434FEA1C4756
:1004E0001FFA8CFEB3FBF7F007FB10360B0C43EA48
:1004F000064300FB0EF69E4204FA02F408D91CEBF8
:10050000030300F1FF382FD29E422DD902386344F5
:100510009B1B89B2B3FBF7F607FB163341EA034195
:1005200006FB0EF38B4208D91CEB010106F1FF38E4
:1005300016D28B4214D9023E6144C91A46EA0046DB
:1005400038E72E46284605E70646E3E61846F8E66D
:100550004B45A9D2B9EB020864EB0C0E0138A3E7B6
:100560004646EAE7204694E74046D1E7D0467BE797
:10057000023B614432E7304609E76444023842E70F
:10058000704700BF2DE9F04FA7B0052806D0062818
:1005900000F0DE80002027B0BDE8F08F824F0421FC
:1005A000384601F0D9FE04460821384601F0D4FE51
:1005B00083461021384601F0CFFE054620213846FB
:1005C00001F0CAFE06464021384601F0C5FE8146CC
:1005D0008021384601F0C0FE80464FF480713846D5
:1005E00001F0BAFE01904FF40071384601F0B4FEFC
:1005F00002904FF48061384601F0AEFE03904FF454
:100600000061384601F0A8FE04904FF4805138464E
:1006100001F0A2FE05904FF40051384601F09CFE17
:1006200006904FF48041384601F096FE07904FF453
:100630000041384601F090FE089001214FF09040B3
:1006400001F08AFE099002214FF0904001F084FEF3
:10065000824604214FF0904001F07EFE0A9008216E
:100660004FF0904001F078FE0B9010214FF0904039
:1006700001F072FE074620214FF0904001F06CFE21
:10068000024654B3BBF1000F27D035B32EB3B9F1F6
:10069000000F22D0B8F1000F1FD0019BEBB1029BDD
:1006A000DBB1039BCBB1049BBBB1059BABB1069BFC
:1006B0009BB1079B8BB1089B7BB1099B6BB1BAF1D6
:1006C000000F0AD00A9B43B10B9B33B12FB120B16D
:1006D000364B01221A7000205DE744EA0B042C43DC
:1006E000344349EA040448EA0404019B23431C46BA
:1006F000029B234303981843049B03431846059B1E
:1007000003431846069B03431846079B03431846BA
:10071000089B03431846099B03434AEA030A0A9BC2
:1007200043EA0A090B9B43EA090847EA08073A43E8
:10073000D2B21F490DA802F0E5FD0DA8FFF748FD54
:100740004FF4E06382B20DA91A4802F0A6FC22E73A
:1007500040214FF0904001F0FFFD044680214FF012
:10076000904001F0F9FD05464FF480714FF0904044
:1007700001F0F2FD34B12DB120B10F4B01221A70FE
:10078000002008E72C430443E2B209490DA802F017
:10079000B9FD0DA8FFF71CFD4FF4E06382B20DA96F
:1007A000044802F07AFCF6E6000800488D000020BC
:1007B000183C0008C40000208E00002000B587B05F
:1007C0000A46082304930023039302930090012315
:1007D0006946034801F0A1FF07B05DF804FB00BFC4
:1007E0009C00002010B582B00023009301930123E8
:1007F0008DF80030694640F20220FFF7DFFF044623
:10080000C82000F06FFC074B1B7813B9204602B0DC
:1008100010BD4FF4E06319220349044802F03DFC87
:100820000446F3E78C0000203C3C0008C400002094
:1008300010B582B000230093019301238DF801309D
:10084000694640F20220FFF7B9FF0446C82000F0D5
:1008500049FC074B1B7813B9204602B010BD4FF47A
:10086000E0631F220349044802F017FC0446F3E743
:1008700091000020583C0008C400002010B582B050
:1008800000230093019301238DF80230694640F262
:100890000220FFF793FF0446C82000F023FC074B1B
:1008A0001B7813B9204602B010BD4FF4E06321223B
:1008B0000349044802F0F1FB0446F3E790000020EE
:1008C000783C0008C400002010B582B000230093DB
:1008D000019301238DF80330694640F20220FFF7AF
:1008E0006DFF0446C82000F0FDFB0520FFF74AFE1F
:1008F000074B1B7813B9204602B010BD4FF4E063DC
:100900001E220449044802F0C8FB0446F3E700BF76
:100910008D0000209C3C0008C400002010B582B06F
:1009200000230093019301238DF80430694640F2BF
:100930000220FFF743FF0446C82000F0D3FB074B1B
:100940001B7813B9204602B010BD4FF4E0631722A4
:100950000349044802F0A1FB0446F3E78F0000209E
:10096000BC3C0008C400002010B582B000230093F6
:10097000019301238DF80530694640F20220FFF70C
:100980001DFF0446C82000F0ADFB074B1B7813B9D0
:10099000204602B010BD4FF4E06322220349044810
:1009A00002F07BFB0446F3E78E000020D43C0008F5
:1009B000C400002008B5FFF715FF642000F092FB8B
:1009C000FFF736FF642000F08DFBFFF757FF642030
:1009D00000F088FBFFF7A2FFFFF776FF642000F02E
:1009E00081FBFFF7C1FF104B1B78ABB10F4B1B789E
:1009F000A3B10F4B1B789BB10E4B1B7893B10E4BE1
:100A00001B780BB9002008E04FF4E06319220B4972
:100A10000B4802F042FB00E0002008BD0020FCE78C
:100A20000020FAE70020F8E78C0000209100002069
:100A3000900000208F0000208D000020F83C00086E
:100A4000C400002072B6FEE700B5B9B04422002110
:100A500027A802F04FFC0021229123912491259197
:100A600026918822684602F045FC022327934FF422
:100A700080722A9210222B92319332930122339268
:100A80000A223492072235923693379327A800F032
:100A9000DFFB50BB0F2322930323239300232493D4
:100AA00025932693042122A800F0E0FEF8B944F231
:100AB0006103009300230E93139314934FF080531C
:100AC0001E9302230193012202920822039207221D
:100AD0000492059306934FF080730793684601F0E4
:100AE00011F930B939B05DF804FBFFF7ABFFFFF740
:100AF000A9FFFFF7A7FF000010B582B000F0D0FA01
:100B0000FFF7A2FF00F08CF800F016F900F012FADF
:100B100000224FF480714FF0904001F024FC3B4CD8
:100B2000204601F0CCFD0221204601F010FF14E028
:100B30004FF4E06317223649364802F0AEFAC82077
:100B400000F0D0FA00230093019301238DF80130C7
:100B5000694640F20220FFF731FE2F4C4FF400416E
:100B6000204601F005FCFA2000F0BCFA4FF4804169
:100B7000204601F0FDFB01224FF40041204601F028
:100B8000F2FBFA2000F0AEFA244B1B78072BE4D8D6
:100B900001A252F823F000BFB90B0008CF0B0008E8
:100BA000D90B0008E30B0008F70B0008ED0B000859
:100BB000010C0008310B0008FFF7FCFE04460A2078
:100BC00000F090FA002CC8D0204602B010BDFFF70C
:100BD00009FE0028C1D0F8E7FFF72AFE0028BCD0A4
:100BE000F3E7FFF74BFE0028B7D0EEE7FFF76CFE08
:100BF0000028B2D0E9E7FFF791FE0028ADD0E4E786
:100C0000FFF7B2FE0028A8D0DFE700BF9C0000205D
:100C1000143D0008C4000020000800480000002027
:100C200070B58AB00024059406940794089409943A
:100C30003C4BDA6C42F00402DA64DA6C02F0040233
:100C40000092009ADA6C42F08002DA64DA6C02F008
:100C500080020192019ADA6C42F00102DA64DA6CE5
:100C600002F001020292029ADA6C42F00202DA64A5
:100C7000DA6C02F002020392039ADA6C42F0080284
:100C8000DA64DB6C03F008030493049B22464FF400
:100C900080714FF0904001F066FB43F6FC730593C2
:100CA00006940794204E05A9304601F055FA4FF4FA
:100CB00040430593012506950794089405A93046FD
:100CC00001F04AFA022305930694079405A91748F0
:100CD00001F042FA48F2FF6305930694079405A9D0
:100CE0004FF0904001F038FA4FF480730593069569
:100CF0000794089405A94FF0904001F02DFA4FF6A3
:100D0000FF7305930694079405A9094801F024FA96
:100D1000042305930694079405A9064801F01CFADC
:100D20000AB070BD0010024000080048001C0048D6
:100D300000040048000C004800B58BB01748184B61
:100D400003602023436000238360C3604FF4E022EC
:100D5000026143610376012242768376C27603778D
:100D6000437701F083FBB0B9012208920023059379
:100D7000049344F22001009101934FF480410291C9
:100D800003930692079209936946044801F014FC04
:100D90000BB05DF804FBFFF755FEE5E79C00002073
:100DA0000064004000B589B00023039304930593C9
:100DB0000693079302681C4B9A4202D009B05DF873
:100DC00004FB03F5D6339A6D42F000729A659A6D72
:100DD00002F000720192019ADA6C42F00102DA64C8
:100DE000DB6C03F001030293029B4FF4C0530393A7
:100DF00002230493032306930923079303A94FF0C7
:100E0000904001F0A9F900221146142001F0D4FA13
:100E1000142001F009FB00221146152001F0CCFA44
:100E2000152001F001FBC9E70064004000B589B05E
:100E3000002301930293039304930593069307936E
:100E4000354B834202D009B05DF804FB334B01AA55
:100E50000021314801F0D6FC019BB3F5007F17D08B
:100E600040F201229342EED12C4B1B78012B47D04C
:100E70002A4B5B78012B47D0284B9B78012B47D01E
:100E8000264BDB78012BDED1254B01221A70DAE7E5
:100E9000224A1278012A1BD0204A5278012A1BD0FC
:100EA0001E4A9278012A1BD01C4AD278012A1BD0F4
:100EB0001A4A1279012A1BD0184A5279012A1BD0EA
:100EC000164A9279012ACBD1164A06211170C7E73A
:100ED000144A00211170C3E7124A01211170BFE7C3
:100EE000104A02211170BBE70E4A03211170B7E7C7
:100EF0000C4A04211170B3E70A4A05211170AFE7CB
:100F0000094B01221A709EE7084B01221A709AE7DA
:100F1000074B01221A7096E79C00002094000020E5
:100F20008F000020000000208C0000209100002095
:100F30009000002008B50B480B4B03600B4B43603F
:100F40004FF0805383600023C36003610C22426131
:100F500083610362436202F044F900B908BDFFF700
:100F600071FDFBE7C4000020008000402433030033
:100F700010B5AAB004460021259126912791289109
:100F80002991882203A802F0B5F92268174B9A42EA
:100F900001D02AB010BD2023039303A800F0B2FEB5
:100FA00000BB134BDA6D42F00102DA65DA6D02F034
:100FB00001020192019ADA6C42F00402DA64DB6CFD
:100FC00003F004030293029B03232593022226923B
:100FD0000022279228930823299325A9054801F088
:100FE000BBF8D6E7FFF72EFDDBE700BF008000402F
:100FF0000010024000080048FEE7FEE7FEE7FEE7BB
:10100000FEE770477047704708B500F059F808BD13
:1010100008B5024801F0B9FC08BD00BF9C000020E3
:1010200082B00A4B1A6E42F001021A661A6E02F082
:1010300001020092009A9A6D42F080529A659B6D6F
:1010400003F080530193019B02B0704700100240EF
:10105000104B1B780BB90120704710B504464FF4B4
:101060007A70B0FBF3F30C4A1068B0FBF3F001F0B8
:10107000E9F968B90F2C01D901200AE000222146C4
:101080004FF0FF3001F098F9044B1C60002000E0A5
:10109000012010BD010000200800002004000020F5
:1010A00010B5032001F076F90F20FFF7D1FF10B142
:1010B0000124204610BD0446FFF7B2FFF9E7000007
:1010C000034B1B78034A11680B441360704700BF41
:1010D0000100002048010020014B1868704700BF44
:1010E0004801002038B50446FFF7F6FF0546B4F185
:1010F000FF3F02D0044B1B781C44FFF7EDFF401B61
:10110000A042FAD338BD00BF0100002030B583B043
:101110000446204B9B6D13F0805F0BD001F032F939
:10112000B0F5007F17D0802C1FD82DD0702C2DD07B
:1011300000211BE0174DAB6D43F08053AB65AB6DE9
:1011400003F080530193019B01F01CF9AB6D23F078
:101150008053AB65E4E7802C03D9A02C03D902218E
:1011600004E0002102E0012100E003210A4A1368A3
:1011700023F007030B431360136803F007038B424C
:1011800006D1002003B030BD0221EFE70121EDE7D9
:101190000120F7E70010024000200240284A93682F
:1011A000D26802F0030213F00C030AD00C2B06D015
:1011B000042B1FD0082B20D00020024610E0012A6B
:1011C000F6D11F4A126812F0080F0CD11C4AD2F84F
:1011D0009420C2F303221B4951F8222043B100207E
:1011E0000C2B0DD07047164A1268C2F30312F2E7B7
:1011F0001046F5E714480022F2E714480022EFE712
:101200000F4BDB6803F00303022B16D0032B00D136
:101210000E4A0B49C868C0F30210431CC868C0F3EB
:10122000062002FB00F0B0FBF3F0CB68C3F3416390
:1012300001335B00B0FBF3F0D4E7034AE9E700BFFA
:1012400000100240443D00080024F40000127A001F
:10125000002800F0F182F0B583B00446964B9D68FB
:1012600005F00C05DE6806F00306036813F0100FA6
:101270005AD0E5B10C2D18D0A369002B00F0BB802B
:101280008D4A136843F001031360FFF725FF0746FB
:10129000894B1B6813F0020F40F09A80FFF71CFF88
:1012A000C01B0228F4D90320D1E2012EE4D1824BE5
:1012B0001B6813F0020F03D0A369002B00F0BE825D
:1012C000206A7D4B1B6813F0080F5BD07A4B1B68BC
:1012D00003F0F00398425CD8774B1A6842F008029A
:1012E0001A601A6822F0F002216A0A431A605A68EA
:1012F00022F47F42E16942EA01225A60002D60D067
:10130000FFF74CFF6C4B9B68C3F303136B4AD35C32
:1013100003F01F03D8406A4B18606A4B1868FFF748
:1013200097FE002840F09382236813F0010F00F02D
:101330008180082D75D00C2D71D06368B3F5803F86
:1013400000F09780B3F5A02F00F099805A4B1A68EF
:1013500022F480321A601A6822F480221A606368CC
:10136000002B00F09980FFF7B7FE0746524B1B6831
:1013700013F4003F5ED1FFF7AFFEC01B6428F5D920
:10138000032064E24C4BD3F894301B0903F0F003C4
:10139000A0E7FFF7BBFE002840F05282464B1A68D8
:1013A00042F008021A601A6822F0F002216A0A4329
:1013B0001A605A6822F47F42E16942EA01225A60C7
:1013C0009EE7206AFFF7A2FE002899D001203EE2A6
:1013D000394B1A6842F008021A601A6822F0F002CB
:1013E000216A0A431A605A6822F47F42E16942EA9C
:1013F00001225A6098E7304A136823F00103136012
:10140000FFF76AFE07462C4B1B6813F0020F8BD0C8
:10141000FFF762FEC01B0228F5D9032017E2032E56
:101420008BD1254B1B6813F4003F03D06368002B5E
:1014300000F00882236813F0020F58D0042D45D025
:101440000C2D41D0E368002B77D01B4A136843F47E
:1014500080731360FFF740FE0646174B1B6813F4BA
:10146000806F61D1FFF738FE801B0228F5D9032079
:10147000EDE1114A136843F4803313606FE703F121
:101480008043A3F53C331A6842F480221A601A683C
:1014900042F480321A6062E7FFF71EFE0746064BF1
:1014A0001B6813F4003FC5D0FFF716FEC01B64286D
:1014B000F5D90320CBE100BF001002402C3D00080D
:1014C0000800002004000020022EBBD1A34B1B68A3
:1014D00013F4806F03D0E368002B00F0B5819F4ABE
:1014E000536823F0F853216943EA0163536023688A
:1014F00013F0080F4CD063699BB3984AD2F894302C
:1015000043F00103C2F89430FFF7E6FD0646934B23
:10151000D3F8943013F0020F3AD1FFF7DDFD801BB2
:101520000228F4D9032092E18C4A536823F0F8533F
:10153000216943EA01635360D9E7884A136823F4B9
:1015400080731360FFF7C8FD0646844B1B6813F4D5
:10155000806FCCD0FFF7C0FD801B0228F5D9032097
:1015600075E17E4AD2F8943023F00103C2F894303A
:10157000FFF7B2FD0646794BD3F8943013F0020F13
:1015800006D0FFF7A9FD801B0228F4D903205EE1F5
:10159000236813F0040F7AD0704B9B6D13F0805FBB
:1015A00036D16E4B9A6D42F080529A659B6D03F076
:1015B00080530193019B0126694B1B6813F4807FC4
:1015C00028D0A368012B39D0052B3FD0634BD3F82B
:1015D000902022F00102C3F89020D3F8902022F04E
:1015E0000402C3F89020A368002B3DD0FFF774FDE0
:1015F00007465A4BD3F8903013F0020F46D1FFF74D
:101600006BFDC01B41F288339842F2D903201EE1E2
:101610000026D1E7524A136843F480731360FFF742
:101620005BFD07464E4B1B6813F4807FC9D1FFF763
:1016300053FDC01B0228F5D9032008E1474AD2F820
:10164000903043F00103C2F89030CCE7434BD3F81D
:10165000902042F00402C3F89020D3F8902042F08A
:101660000102C3F89020BEE7FFF736FD07463B4B6B
:10167000D3F8903013F0020F08D0FFF72DFDC01BF8
:1016800041F288339842F2D90320E0E0EEB9A36A30
:10169000002B00F0DB80022B1DD00C2D00F0DD8034
:1016A0002E4A136823F080731360FFF715FD04467C
:1016B0002A4B1B6813F0007F00F0B780FFF70CFD8A
:1016C000001B0228F4D90320C1E0244A936D23F0C3
:1016D00080539365DBE7214BDB6803F00301E26A8B
:1016E00091420FD00C2D00F0B4801C4B1B6813F0FE
:1016F000806F40F0B080194B1B6813F0805F31D0D1
:101700000120A4E003F07002216B0139B2EB011F4C
:10171000E8D103F4FE42616BB2EB012FE2D103F496
:101720000031A26B073A18BF01229142DAD103F4CB
:10173000C001E26B5208013AB1EB425FD2D103F033
:10174000C063226C5208013AB3EB426FCAD1034B1B
:101750001B6813F0007F4ED0002078E0001002409C
:10176000007000403E4A136823F080731360FFF757
:10177000B3FC05463A4B1B6813F0007F06D0FFF719
:10178000ABFC401B0228F5D9032060E0344AD36843
:1017900034491940E36A206B013843EA0013606B57
:1017A00043EA0023E06B4008013843EA4053206CD1
:1017B0004008013843EA4063A06B000943EA404314
:1017C0000B43D360136843F080731360D36843F016
:1017D0008073D360FFF780FC0446214B1B6813F035
:1017E000007F06D1FFF778FC001B0228F5D9032003
:1017F0002DE000202BE01A4B1A6842F080721A602C
:10180000DA6842F08072DA60FFF766FC0446144B37
:101810001B6813F0007F06D1FFF75EFC031B022B51
:10182000F5D9032013E0002011E00D4AD1680E4BDA
:101830000B40D36000200AE001207047012006E041
:10184000012004E0012002E0012000E0002003B0BC
:10185000F0BD0120FBE70120F9E70120F7E700BF19
:10186000001002408C809DF9FCFFEEFE002800F085
:10187000AF8070B50D460446594B1B6803F0070353
:101880008B420BD2564A136823F007030B431360B5
:10189000136803F007038B4240F09C80236813F029
:1018A000020F0CD0A2684F4B9B6803F0F0039A42E2
:1018B00005D94C498B6823F0F0031A438A602368EA
:1018C00013F0010F39D06368032B09D0022B26D007
:1018D00063BB444A126812F0020F06D1012076E081
:1018E000404A126812F0007F76D03E498A6822F0A2
:1018F000030213438B60FFF7EFFB0646394B9B68EF
:1019000003F00C036268B3EB820F16D0FFF7E4FB21
:10191000801B41F288339842F0D9032057E0314AC6
:10192000126812F4003FE0D1012050E02D4A126805
:1019300012F4806FD9D1012049E0236813F0020F1F
:101940000CD0A268274B9B6803F0F0039A4205D2A3
:1019500024498B6823F0F0031A438A60204B1B68EC
:1019600003F00703AB420AD91D4A136823F00703AB
:101970002B431360136803F00703AB422ED1236897
:1019800013F0040F06D0174A936823F4E063E1686C
:101990000B439360236813F0080F07D0114A936834
:1019A00023F46053216943EAC1039360FFF7F6FB18
:1019B0000C4B9B68C3F303130B4AD35C03F01F0368
:1019C000D8400A4B18600A4B1868FFF741FB70BDFE
:1019D000012070470120FAE70120F8E70120F6E72F
:1019E00000200240001002402C3D000808000020AA
:1019F00004000020014B1868704700BF0800002059
:101A000008B5FFF7F7FF054B9B68C3F30223044AB1
:101A1000D35C03F01F03D84008BD00BF0010024094
:101A20003C3D000808B5FFF7E5FF054B9B68C3F395
:101A3000C223044AD35C03F01F03D84008BD00BF93
:101A4000001002403C3D0008F8B504460F46594BD3
:101A5000DB6813F0030F18D0564BDB6803F0030369
:101A60000268934202D001252846F8BD002A00F002
:101A70009E80504BDB68C3F30213013342689342EC
:101A800001D00125F0E7002509E00368022B57D0BB
:101A9000032B5CD0012B42D00125002DE4D1454A17
:101AA000136823F080631360FFF716FB0646414B73
:101AB0001B6813F0006F05D0FFF70EFB831B022B92
:101AC000F5D90325002DCFD1002F4ED139490B690F
:101AD00023F41F3323F44073A068E2681209520410
:101AE00042EA002213430B61324A136843F08063D9
:101AF0001360FFF7F1FA06462E4B1B6813F0006FD8
:101B000005D1FFF7E9FA831B022BF5D90325002D38
:101B1000AAD1284A1369A1690B431361A4E7254A96
:101B2000126812F0020F1ED02248C26822F073021F
:101B30006168013943EA01131343C3600025ACE730
:101B40001C4A126812F4806FEED10125A5E7194AEC
:101B5000126812F4003FE7D1164A126812F4802F7F
:101B6000E2D1012599E7012597E7012F0FD0114810
:101B7000026922F0C06222F4FE42A16863695B0838
:101B8000013B5B0643EA012313430361ACE70948C9
:101B9000026922F4C00222F4FE42A16823695B08B4
:101BA000013B5B0543EA0123134303619CE70125E5
:101BB0005AE700BF00100240F8B504460F46504BEC
:101BC000DB6813F0030F18D04D4BDB6803F0030301
:101BD0000268934202D001252846F8BD002A00F091
:101BE0008C80474BDB68C3F3021301334268934296
:101BF00001D00125F0E7002509E00368022B57D04A
:101C0000032B5CD0012B42D00125002DE4D13C4AAE
:101C1000136823F080531360FFF75EFA0646384BD3
:101C20001B6813F0005F05D0FFF756FA831B022BE9
:101C3000F5D90325002DCFD1002F4ED130494B6966
:101C400023F41F3323F44073A068E268120952049E
:101C500042EA002213434B61294A136843F0805340
:101C60001360FFF739FA0646254B1B6813F0005F37
:101C700005D1FFF731FA831B022BF5D90325002D7F
:101C8000AAD11F4A536961690B435361A4E71C4AF7
:101C9000126812F0020F1ED01948C26822F07302B7
:101CA0006168013943EA01131343C3600025ACE7BF
:101CB000134A126812F4806FEED10125A5E7104A8D
:101CC000126812F4003FE7D10D4A126812F4802F17
:101CD000E2D1012599E7012597E70948426922F0F9
:101CE000C06222F4FE42A16823695B08013B5B06E7
:101CF00043EA012313434361AEE701256CE700BFCC
:101D0000001002402DE9F04182B00446036813F44C
:101D1000006F33D0436EB3F5000F1FD00CD823B340
:101D2000B3F5800F05D100212030FFF745FF0646AF
:101D300020E001273E4623E0B3F5400F0BD10026FB
:101D4000604AD2F8883023F44003616E0B43C2F836
:101D50008830002714E001273E4611E0594AD36835
:101D600043F48033D3600026EAE700210430FFF714
:101D70006BFE0646002EE3D0374601E000273E46C4
:101D8000236813F4805F30D0A36EB3F1007F1FD0BF
:101D90000DD81BB3B3F1807F06D1002104F12000E0
:101DA000FFF70AFF064605E001273E461DE0B3F1B6
:101DB000407F0AD1C6B9434AD2F8883023F0407335
:101DC000A16E0B43C2F888300FE001273E460CE0BD
:101DD0003C4AD36843F48033D360EBE70021201DF5
:101DE000FFF732FE0646E5E73746236813F4003F67
:101DF00071D0344B9B6D13F0805F4ED1314B9A6D97
:101E000042F080529A659B6D03F080530193019BD1
:101E10004FF001082C4A136843F480731360FFF7F6
:101E20005BF90546284B1B6813F4807F05D1FFF74B
:101E300053F9401B0228F5D90326002E46D1214B29
:101E4000D3F8903013F4407316D0D4F884209A421B
:101E500012D01C4AD2F8903023F44073D2F890107C
:101E600041F48031C2F89010D2F8901021F4803102
:101E7000C2F89010C2F8903013F0010F10D1002E6C
:101E800040F027810F4AD2F8903023F44073D4F801
:101E900084100B43C2F8903019E04FF00008B9E706
:101EA000FFF71AF90546074BD3F8903013F0020FED
:101EB000E5D1FFF711F9401B41F288339842F2D97E
:101EC0000326DCE700100240007000403746B8F1FE
:101ED000000F40F00081236813F0010F08D09D4AE5
:101EE000D2F8883023F00303A16B0B43C2F888308B
:101EF000236813F0020F08D0964AD2F8883023F0F6
:101F00000C03E16B0B43C2F88830236813F0040F15
:101F100008D0904AD2F8883023F03003216C0B436C
:101F2000C2F88830236813F0080F08D0894AD2F825
:101F3000883023F0C003616C0B43C2F888302368FB
:101F400013F0100F08D0834AD2F8883023F440737E
:101F5000A16C0B43C2F88830236813F0200F08D01F
:101F60007C4AD2F8883023F44063E16C0B43C2F81A
:101F70008830236813F4007F08D0764AD2F888307E
:101F800023F44023E16D0B43C2F88830236813F437
:101F9000806F08D06F4AD2F8883023F44013216E46
:101FA0000B43C2F88830236813F0400F08D0694A09
:101FB000D2F8883023F44053216D0B43C2F88830A7
:101FC000236813F0800F08D0624AD2F8883023F4D7
:101FD0004043616D0B43C2F88830236813F4807F5F
:101FE00008D05C4AD2F8883023F44033A16D0B430B
:101FF000C2F88830236813F4005F0FD0554AD2F836
:10200000883023F04063E16E0B43C2F88830E36E02
:10201000B3F1006F65D0B3F1806F67D0236813F41C
:10202000002F0FD04B4AD2F8883023F04063216F45
:102030000B43C2F88830236FB3F1006F5ED0B3F169
:10204000806F60D0236813F4802F0FD0414AD2F8FC
:10205000883023F04063616F0B43C2F88830636FB0
:10206000B3F1006F57D0B3F1806F59D0236813F4E8
:10207000804F0FD0374AD2F8883023F04053A16FF9
:102080000B43C2F88830A36FB3F1805F50D0B3F137
:10209000005F55D0236813F4004F08D02D4AD2F8C2
:1020A000883023F08043E16F0B43C2F88830236807
:1020B00013F4803F09D0274AD2F8883023F0004338
:1020C000D4F880100B43C2F88830384602B0BDE81F
:1020D000F0813746FBE61F4A936D23F080539365EA
:1020E000F9E6D36843F48013D36097E70121201DFC
:1020F000FFF7AAFC002891D007468FE7D36843F486
:102100008013D3609EE70121201DFFF79DFC00286E
:1021100098D0074696E7D36843F48013D360A5E7C9
:102120000121201DFFF790FC00289FD007469DE766
:102130000221201DFFF788FC0028ABD00746A9E745
:10214000022104F12000FFF737FD0028A2D0074646
:10215000A0E700BF00100240F0B583B000236BE0A1
:1021600085685E000324B44025EA0405CC68B440C9
:102170002C438460456825EA0C054C68C4F30014C0
:102180009C402C43446069E0C56A25EA0C0CC4F30A
:10219000C0049C4044EA0C04C46265E0DD080835D4
:1021A00050F8256003F007044FEA840C0F2404FA6A
:1021B0000CF426EA040E0C6904FA0CF444EA0E044A
:1021C00040F8254067E0062400E0002404FA0EF4FD
:1021D0002C430CF1020C5C4D45F82C405B4CA5687F
:1021E000D44325EA02064F6817F4801F01D042EA63
:1021F0000506564DAE60ED6804EA05064F6817F413
:10220000001F01D042EA0506504DEE606D6804EAF9
:1022100005064F6817F4003F01D042EA05064B4D12
:102220006E602D682C404E6816F4803F01D042EA63
:102230000504464A146001330A6832FA03F400F0D8
:1022400081804FF0010C0CFA03FC1CEA0202F2D070
:102250004C6804F00304013C012C81D94C6804F063
:10226000030EBEF1030F8FD04C6804F00304032C5F
:102270000CD0C4685D004FF0030C0CFA05FC24EA96
:102280000C0C8C68AC4044EA0C04C4604C6804F04C
:102290000304022C82D004684FEA430E4FF0030C73
:1022A0000CFA0EFC24EA0C0C4C6804F0030404FA4B
:1022B0000EF444EA0C0404604C6814F4403FBAD0B5
:1022C000234C256E45F001052566246E04F00104BB
:1022D0000194019C4FEA930C0CF102051A4C54F83E
:1022E000255003F003044FEA840E0F2404FA0EF481
:1022F00025EA0405B0F1904F3FF467AF154CA042BA
:1023000016D004F58064A04214D004F58064A04285
:1023100012D004F58064A04210D004F58064A0427D
:102320000ED004F58064A0423FF44DAF07244DE782
:1023300001244BE7022449E7032447E7042445E747
:10234000052443E703B0F0BD000001400004014054
:1023500000100240000400480369194201D0012026
:102360007047002070470AB18161704781627047F1
:10237000436901EA030221EA030141EA0241816162
:1023800070470000024B186800F4C060704700BF3F
:1023900000700040074AD36823F4E0631B041B0C61
:1023A000000200F4E060034343F0BF6343F40033F2
:1023B000D360704700ED00E000B5194BDB68C3F354
:1023C0000223C3F1070CBCF1040F28BF4FF0040C2B
:1023D00003F1040EBEF1060F18D9033B4FF0FF3E88
:1023E0000EFA0CFC21EA0C0199400EFA03F322EAE2
:1023F0000303194300280BDB0901C9B200F1604057
:1024000000F5614080F800135DF804FB0023E5E768
:1024100000F00F000901C9B2024B1954F4E700BFE4
:1024200000ED00E014ED00E0002807DB00F01F02E3
:10243000400901239340024A42F82030704700BF10
:1024400000E100E00138B0F1807F0BD24FF0E023D3
:102450005861054AF02182F8231000209861072274
:102460001A6170470120704700ED00E0002800F07D
:10247000A18038B5044690F82030D3B122681368A3
:1024800043F001031360FEF727FE054623685A68F0
:1024900012F0010F10D1FEF71FFE401B0A28F5D9DC
:1024A000636A43F400336362052384F8203001201B
:1024B00038BDFEF777FCE1E71A6822F002021A60E5
:1024C000FEF70AFE054623685A6812F0020F0DD087
:1024D000FEF702FE401B0A28F5D9636A43F4003375
:1024E0006362052384F820300120E1E7227E012A7F
:1024F0003DD01A6822F080021A60637E012B3BD027
:102500002268136823F040031360A37E012B39D0A7
:102510002268136823F020031360E37E012B37D079
:102520002268136843F010031360237F012B35D01A
:102530002268136823F008031360637F012B33D0F4
:102540002268136823F004031360A368E26813434E
:1025500022691343626913436268013A2168134395
:10256000CB6100206062012384F82030A0E71A6864
:1025700042F080021A60C0E72268136843F040030B
:102580001360C2E72268136843F020031360C4E7B6
:102590002268136823F010031360C6E722681368EB
:1025A00043F008031360C8E72268136843F004038C
:1025B0001360CAE701207047026890F82030013BA1
:1025C000DBB2012B05D9436A43F480234362012027
:1025D000704730B4D2F8003243F00103C2F8003241
:1025E0004B6903F01F03012000FA03F3D2F81C0229
:1025F0006FEA030C20EA0300C2F81C02C869B0B9F4
:10260000D2F80C020CEA0000C2F80C028C8848696F
:10261000CD6844EA0544483042F830400C884869A7
:102620008D6844EA0544483002EBC0004460C86944
:1026300001281BD0886980BBD2F804020CEA000094
:10264000C2F80402086970BBD2F814020CEA000058
:10265000C2F81402096A01292BD0D2F8003223F003
:102660000103C2F80032002030BC7047D2F80C02DF
:102670001843C2F80C028C8848690D6844EA054486
:10268000483042F830408C8948698D6844EA0544F6
:10269000483002EBC0004460CCE7D2F80402184393
:1026A000C2F80402CEE7D2F814021843C2F81402AA
:1026B000D0E7D2F81C120B43C2F81C32CDE770B53C
:1026C000044690F82050EDB2012D06D0436A43F441
:1026D000002343620125284670BD022380F8203084
:1026E0000268136823F001031360FEF7F5FC064649
:1026F00023685B6813F0010F0CD0FEF7EDFC831B21
:102700000A2BF5D9636A43F400336362052384F826
:102710002030E0E700256562DDE730B590F820C0A5
:102720000468A4680CF1FF3C5FFA8CFCBCF1010F5B
:1027300062D814F0E05F59D0C4F3016C012404FAAC
:102740000CF41C608B68002B3DD10D68CB680468CD
:1027500043EA45550CF118031B01E55003680C6969
:102760000CF1180E03EB0E135C600B7D012B35D0C2
:10277000D17993791B0443EA0163517943EA012338
:1027800014790168234301EB0C11C1F88C31D17825
:1027900093781B0443EA0163517843EA01231178DB
:1027A00002680B4302EB0C12C2F8883102680CF18C
:1027B000180C4FEA0C1C52F80C3043F0010342F89D
:1027C0000C3000201DE04C6843EAC403CC6823436E
:1027D0000CF11804240105682B51BFE7036803EBD3
:1027E0000E13596841F480715960C1E7436A43F49C
:1027F00000134362012004E0436A43F480234362F0
:10280000012030BD90F820C00CF1FF3C5FFA8CFC39
:10281000BCF1010F00F2958030B451B90468E4684E
:1028200014F0030F10D1436A43F4001343620120F4
:1028300077E00468246914F0030F05D1436A43F478
:102840000013436201206CE001F11B0424010568C0
:102850002C5904F004049460002C64D101F11B0491
:10286000240105682C59640D1460046801F11B0CE7
:102870004FEA0C1C54F80C4004F00204D4600468C5
:102880006444646804F00F04146104686444646878
:10289000C4F307249461046864446468240C54619C
:1028A000026802EB0112D2F8B8211A70026802EB3A
:1028B0000112D2F8B821C2F307225A70026802EB63
:1028C0000112D2F8B821C2F307429A70026802EBF3
:1028D0000112D2F8B821120EDA70026802EB01126E
:1028E000D2F8BC211A71026802EB0112D2F8BC21A5
:1028F000C2F307225A71026802EB0112D2F8BC211E
:10290000C2F307429A71026802EB0112D2F8BC21AD
:10291000120EDA7179B90268D36843F02003D360EC
:10292000002030BC704701F11B04240105682C59BC
:10293000E408546099E70268136943F020031361C7
:10294000EEE7436A43F4802343620120704790F826
:102950002030013BDBB2012B05D9436A43F48023CD
:102960004362012070470268536919435161002096
:10297000704770477047704770477047704770479F
:10298000704770477047704770472DE9F84F05460C
:1029900003685C69D3F804809F68D3F80CB0D3F85F
:1029A00010A0D3F8189014F001063BD017F00106E0
:1029B00016D001229A6017F0020F08D117F0040F09
:1029C0000CD117F0080606D04FF4805608E0FFF748
:1029D000D0FF002604E0FFF7CFFF01E04FF40066D0
:1029E00017F4807F0DD02B684FF480729A6017F433
:1029F000007F40F0868017F4806F00F0868046F4F8
:102A0000005617F4803F0DD02B684FF480329A6047
:102A100017F4003F40F0838017F4802F00F083808C
:102A200046F4004614F0080F07D01BF0100F04D036
:102A300046F400762B681022DA6014F0040F02D0FE
:102A40001BF0080F79D114F0020F04D02B68DB685B
:102A500013F0030F78D114F0400F07D01AF0100FC5
:102A600004D046F480662B6810221A6114F0200FFF
:102A700002D01AF0080F6BD114F0100F04D02B689D
:102A80001B6913F0030F6AD114F4003F02D018F051
:102A9000100F68D114F4803F02D018F0080F69D1EC
:102AA00014F4004F7AD018F0040F74D014F4807F1F
:102AB00004D019F0010F01D046F0010614F4007F94
:102AC00004D019F0020F01D046F0020614F4806F12
:102AD00004D019F0040F01D046F0040614F4006F7E
:102AE00059D019F0700956D0B9F1400F65D058D8B7
:102AF000B9F1200F5ED0B9F1300F42D146F0200677
:102B000044E02846FFF736FF7BE717F4006F02D05A
:102B100046F4804675E72846FFF72FFF71E7284601
:102B2000FFF729FF7EE717F4002F02D046F4803626
:102B300078E72846FFF722FF74E72B680822DA605F
:102B40002846FFF71CFF7EE72846FEF76FF982E76D
:102B50002B6808221A612846FFF713FF8CE72846E6
:102B6000FFF70EFF90E72B6810225A602846FFF708
:102B700009FF8FE72B6808225A602846FFF703FFFA
:102B80008EE7B9F1100F01D146F008062A68936963
:102B900023F0700393612B6804225A609EB9BDE84C
:102BA000F88FB9F1500F0BD0B9F1600FEED146F4A8
:102BB0008076EBE746F01006E8E746F04006E5E7EA
:102BC00046F08006E2E76B6A1E436E622846FFF716
:102BD000DBFEE4E710B5044601688368026913432D
:102BE00042691343C269134308688E4A0240134383
:102BF0000B602268536823F44053E1680B43536031
:102C0000A1692268884B9A4201D0236A19439368CC
:102C100023F430630B4393602368844A934210D0BB
:102C2000834A934221D0834A934237D0824A9342C7
:102C30005CD0824A93426BD07B4A93427DD0102273
:102C40003AE002F55842D2F8882002F00302032A43
:102C500009D8DFE802F00204870601222CE00422F2
:102C60002AE0082228E0102226E002F5E632D2F817
:102C7000882002F00C020C2A0ED8DFE802F0070DC3
:102C80000D0D090D0D0D750D0D0D0B00002213E03E
:102C9000042211E008220FE010220DE002F5E432D8
:102CA000D2F8882002F03002202A5FD01AD8002AF9
:102CB0005ED0102A5ED104225B498B4276D0E06957
:102CC000B0F5004F00F0A380082A00F20E81DFE883
:102CD00012F0DD00F300DB000C01F6000C010C012A
:102CE0000C01F900302A47D10822E5E702F5E2326B
:102CF000D2F8882002F0C002802A3FD004D8FAB36C
:102D0000402A3FD10422D7E7C02A3DD10822D3E789
:102D100002F5E032D2F8882002F44072B2F5007F6A
:102D200034D005D8A2B3B2F5807F33D10422C3E7F3
:102D3000B2F5407F30D10822BEE702F5C832D2F8A2
:102D4000882002F44062B2F5006F27D005D83AB36C
:102D5000B2F5806F26D10422AEE7B2F5406F23D1E1
:102D60000822A9E70222A7E70222A5E70222A3E799
:102D70000022A1E710229FE710229DE702229BE795
:102D8000002299E7102297E7102295E7022293E7A5
:102D9000002291E710228FE710228DE702228BE7B5
:102DA000002289E7102287E7102285E7082A00F22F
:102DB0008C80DFE802F0088A2A8A278A8A8A05003E
:102DC0004FF4004003E0FEF71BFE00287FD062684E
:102DD00002EB420383427CD8B0EB023F7BD8010E6A
:102DE00000025308C0184FF0000341F10001FDF745
:102DF00047FAA0F54072124B9A426ED82368D86009
:102E0000002055E0FEF7CAF9DFE70E48DFE7082AA1
:102E100065D8DFE802F019330564366464641D0088
:102E2000084815E0F369FFEF0080004000380140DA
:102E30000044004000480040004C0040005000406A
:102E4000FFFC0F000024F400FEF7DAFD002848D054
:102E50006268530803EB4000B0FBF2F0A0F11002EF
:102E60004FF6EF739A423ED883B223F00F03C0F3BC
:102E7000420018432368D860002019E0FEF7D2FD15
:102E8000E4E7FEF78BF9E1E71B4802E0FEF7B8FD47
:102E900068B3636800EB5300B0FBF3F0A0F11002DD
:102EA0004FF6EF739A4224D8236880B2D86000208E
:102EB00000236366A36610BDFEF7B4FDE8E7FEF7E6
:102EC0006DF9E5E74FF40040E3E70120F0E700206B
:102ED000EEE70120ECE70120EAE70120E8E7012026
:102EE000E6E70020E4E70120E2E70120E0E7002038
:102EF000DEE70120DCE700BF0024F400436A13F0A2
:102F0000010F06D00268536823F40033816A0B4333
:102F10005360436A13F0020F06D00268536823F42B
:102F20008033C16A0B435360436A13F0040F06D029
:102F30000268536823F48023016B0B435360436A98
:102F400013F0080F06D00268536823F40043416B66
:102F50000B435360436A13F0100F06D00268936866
:102F600023F48053816B0B439360436A13F0200F6B
:102F700006D00268936823F40053C16B0B4393603F
:102F8000436A13F0400F0AD00268536823F4801399
:102F9000016C0B435360036CB3F5801F0BD0436A85
:102FA00013F0800F06D00268536823F40023816C6D
:102FB0000B43536070470268536823F4C003416CAD
:102FC0000B435360EBE72DE9F84305460F461646E1
:102FD0009946DDF820802C68E46937EA04030CBFC9
:102FE0004FF0010C4FF0000CB44553D1B8F1FF3F46
:102FF000F1D0FEF771F8A0EB090040452DD8B8F1EB
:10300000000F2AD02B681A6812F0040FE3D0DA6997
:1030100012F4006FDFD04FF400621A622A6852E89F
:10302000003F23F4D07342E800310029F6D12A682A
:1030300002F1080353E8003F23F00103083242E89D
:1030400000310029F3D12023AB67EB67C5F880304E
:10305000002385F8743003201DE02A6852E8003F01
:1030600023F4D07342E800310029F6D12A6802F136
:10307000080353E8003F23F00103083242E800311F
:103080000029F3D12023AB67EB67002385F8743068
:10309000032000E00020BDE8F8832DE9F04182B074
:1030A0001E46836F202B56D104460D4690460029BC
:1030B00055D0002A55D090F87430012B53D00123FD
:1030C00080F874300023C0F8803021238367FEF736
:1030D00003F80746A4F85080A4F85280A368B3F51B
:1030E000805F05D04FF00008002384F8743014E0AE
:1030F000236913B14FF00008F6E7A8460025F3E76F
:1031000038F8023B2268C3F308031385B4F8522051
:1031100092B2013A92B2A4F85220B4F852309BB263
:1031200073B100963B46002280212046FFF74BFFFB
:10313000D8B9002DE4D0236815F8012B1A85E5E7EE
:1031400000963B46002240212046FFF73CFF70B925
:103150002023A36700E0022002B0BDE8F081012037
:10316000FAE70120F8E70220F6E70320F4E703205E
:10317000F2E730B583B004460023C0F88030FDF795
:10318000ABFF05462268126812F0080F0DD12368C4
:103190001B6813F0040F16D12023A367E3670020F8
:1031A000206684F8740003B030BD6FF07E43009356
:1031B000034600224FF400112046FFF704FF0028C9
:1031C000E5D00320EFE76FF07E4300932B4600220B
:1031D0004FF480012046FFF7F6FE0028DCD00320E4
:1031E000E1E768B310B50446836F03B32423A367F4
:1031F0002268136823F0010313602046FFF7EAFCFE
:10320000012813D0636ABBB92268536823F4904342
:1032100053602268936823F02A039360226813683E
:1032200043F0010313602046FFF7A3FF10BD80F8B1
:103230007430FDF79DFED9E72046FFF75FFEE3E718
:1032400001207047034AD2F8883043F47003C2F873
:103250008830704700ED00E0DFF834D0FFF7F2FF70
:103260000C480D490D4A002302E0D458C4500433E1
:10327000C4188C42F9D30A4A0A4C002301E01360B7
:103280000432A242FBD300F011F8FDF735FCFEE753
:10329000008001200000002070000020C03D0008D8
:1032A0007000002060010020FEE7000070B50D4DA9
:1032B0000D4C641BA4100026A64209D10B4D0C4CEA
:1032C00000F09CFC641BA4100026A64205D170BD32
:1032D00055F8043B98470136EEE755F8043B98470C
:1032E0000136F2E7B03D0008B03D0008B03D0008EF
:1032F000B43D000802440346934200D1704703F8EE
:10330000011BF9E70EB400B59CB01DAB029006900E
:103310006FF00041094807910491094953F8042BC3
:1033200005910068019302A900F068F8029B002251
:103330001A701CB05DF804EB03B070470C0000205D
:103340000802FFFF2DE9F0478E689E4282460C4638
:1033500090461F4638D88A8912F4906F32D025687B
:103360000969A5EB0109656905EB450505EBD5750F
:1033700001334B446D109D4238BF1D46530531D576
:10338000294600F063FB064650B90C23CAF800300A
:10339000A38943F04003A3814FF0FF30BDE8F087DD
:1033A00021694A4600F0BEFAA38923F4906343F0F2
:1033B0008003A381266165614E44A5EB0905266063
:1033C000A5603E46BE4200D93E4620683246414690
:1033D00000F0B6FAA3689B1BA36023683344236004
:1033E0000020DBE72A4600F0A5FB06460028E1D1D5
:1033F0002169504600F0BEFAC7E700002DE9F04F02
:1034000098468B891B069DB007460D4614460ED57F
:103410000B6963B9402100F019FB2860286120B9CD
:103420000C233B604FF0FF30D1E040236B61002361
:10343000099320238DF82930CDF80C803023DFF854
:10344000A8818DF82A304FF0010923469A4613F8D7
:10345000012B0AB1252AF9D1BAEB040B0BD05B463C
:10346000224629463846FFF76DFF013000F0AA805A
:10347000099A5A4409929AF80030002B00F0A28071
:1034800000234FF0FF32CDE905230AF1010A04932E
:1034900007938DF853301A935446052214F8011BF4
:1034A0005148FCF79DFE049AD8B9D00644BF2023AA
:1034B0008DF85330110744BF2B238DF853309AF801
:1034C00000302A2B15D0079A544600204FF00A0CE2
:1034D000214611F8013B303B092B4ED9B0B1079280
:1034E00014E0A0EB080309FA03F313430493A24684
:1034F000D2E7039B191D1B680391002BBBBF5B42E6
:1035000042F0020207930793B8BF049223782E2B50
:103510000CD163782A2B35D1039B1A1D1B680392AB
:10352000002BB8BF4FF0FF3302340593DFF8C8A07B
:10353000217803225046FCF753FE40B14023A0EB14
:103540000A0003FA00F0049B03430134049314F8C7
:10355000011B26488DF828100622FCF741FE0028A2
:1035600038D0234B1BBB039B073323F007030833DF
:103570000393099B3344099367E70CFB02320C4623
:103580000120A5E700230134059319464FF00A0CEA
:10359000204610F8012B303A092A03D9002BC5D058
:1035A0000591C3E70CFB012104460123F0E703ABBF
:1035B00000932A460F4B04A93846AFF30080421C03
:1035C0000646D6D1AB895B063FF52CAF09981DB0F6
:1035D000BDE8F08F03AB00932A46064B04A938469A
:1035E00000F07AF8EBE700BF743D00087E3D00086C
:1035F00000000000453300087A3D00082DE9F0473F
:10360000164699468A680B69DDF820809342B8BF58
:103610001346336091F8432007460C460AB1013344
:1036200033602368990642BF3368023333602568EC
:1036300015F0060506D104F1190AE36832689B1AF1
:10364000AB4226DC94F84320131E226818BF0123E6
:1036500092062BD404F1430249463846C047013054
:103660001ED02368E568326803F00603042B08BF08
:10367000AD1AA36822690CBF25EAE57500259342BF
:10368000C4BF9B1AED1800261A34B5421AD1002087
:1036900008E00123524649463846C047013003D16D
:1036A0004FF0FF30BDE8F0870135C6E7E1185A1C3E
:1036B000302081F84300224494F8451082F84310EA
:1036C0000233C7E70123224649463846C047013046
:1036D000E6D00136D9E700002DE9FF470F7E0C9DAB
:1036E000782F914680460C469A4601F1430207D84E
:1036F000622F0AD8002F00F0D880582F00F0A38046
:1037000004F1420584F842703AE0A7F16303152BF7
:10371000F6D801A151F823F0713700088537000869
:103720000137000801370008013700080137000899
:103730008537000801370008013700080137000805
:103740000137000891380008B537000873380008C1
:103750000137000801370008B338000801370008B6
:10376000B537000801370008013700087B3800082A
:103770002B681A1D1B682A6004F1420584F8423048
:103780000123A3E020682968060601F104030AD595
:103790000E682B60002E03DA2D23764284F8433026
:1037A0005E480A2319E00E682B6010F0400F18BF26
:1037B00036B2EFE72B682068191D2960010601D594
:1037C0001E6802E04606FBD51E8854486F2F0CBFCA
:1037D00008230A23002184F843106568A560002DA2
:1037E000A2BF216821F0040121600EB9002D4DD047
:1037F0001546B6FBF3F103FB1167C75D05F8017DC4
:103800003746BB420E46F4D9082B0BD12368DE079E
:1038100008D5236961689942DEBF302305F8013C71
:1038200005F1FF35521B2261CDF800A04B4603AADB
:1038300021464046FFF7E2FE01304CD14FF0FF3009
:1038400004B0BDE8F087354881F8457029682368E1
:1038500051F8046B29601D0614D5DF0744BF43F0FF
:10386000200323601EB9236823F020032360102364
:10387000B0E7236843F0200323607823284884F8C6
:103880004530E3E7590648BFB6B2E6E71546BBE761
:103890002B6826686169181D286035061B6801D5EC
:1038A000196002E07006FBD51980002323611546DC
:1038B000BAE72B681A1D2A601D6862680021284635
:1038C000FCF78EFC08B1401B606063682361002335
:1038D00084F84330A8E723692A4649464046D04742
:1038E0000130ABD023689B0713D4E068039B984258
:1038F000B8BF1846A4E70123324649464046D047A0
:1039000001309BD00135E36803995B1AAB42F2DCCE
:10391000EBE7002504F11906F5E700BF853D000837
:10392000963D00080A44914200F1FF3300D17047F0
:1039300010B511F8014B03F8014F9142F9D110BDB8
:10394000884210B501EB020402D98442234607D80D
:10395000431EA14208D011F8012B03F8012FF8E70C
:10396000024401468A4200D110BD13F8014D02F80D
:10397000014DF7E737B5002944D051F8043C0190D8
:10398000002BA1F10404B8BFE41800F013F91E4A9B
:103990000198136833B96360146003B0BDE8304028
:1039A00000F00EB9A34208D9256861198B4201BF06
:1039B00019685B6849192160EDE71A465B680BB12D
:1039C000A342FAD911685518A5420BD124682144A5
:1039D0005418A3421160E0D11C685B685360214415
:1039E0001160DAE702D90C230360D6E72568611974
:1039F0008B4204BF19685B68636004BF491921608A
:103A00005460CAE703B030BD4C01002070B50E4EC3
:103A10000C463168054611B900F0BCF8306021460B
:103A2000284600F0B7F8431C0AD0C41C24F0030455
:103A3000A04207D0211A284600F0ACF8013001D18D
:103A40004FF0FF34204670BD500100202DE9F041B9
:103A5000CD1C25F0030508350C2D38BF0C25002D95
:103A6000074601DBA94205D90C233B6000263046FE
:103A7000BDE8F0812E4E00F09DF833681C4634BB43
:103A800029463846FFF7C2FF431C04464DD134682F
:103A90002646002E40D123683146384604EB030801
:103AA00000F078F880453AD1216803356D1A25F089
:103AB000030508350C2D38BF0C2529463846FFF77D
:103AC000A5FF01302BD023682B4423600EE0226831
:103AD000521B1ED40B2A16D96119A342256018BFA8
:103AE0005960636808BF316062514B60384604F129
:103AF0000B0600F065F826F00706231DF21AB6D073
:103B00009B1BA350B3E76268A3420CBF32605A60AC
:103B1000ECE723466468B2E734467668B9E70C23DD
:103B20003B60384600F04CF8A1E72560DEE700BFB7
:103B30004C0100202DE9F041804614460E4621B983
:103B4000BDE8F0411146FFF781BF2AB9FFF712FF28
:103B500025462846BDE8F08100F038F88442074643
:103B600002D8B4EB500F12D821464046FFF76EFF43
:103B700005460028EDD0BC422246314628BF3A46D1
:103B8000FFF7D0FE31464046FFF7F4FEE1E7354649
:103B9000DFE7000038B5064D0023044608462B60D9
:103BA00000F01EF8431C02D12B6803B1236038BD1E
:103BB00054010020014800F011B800BF5801002056
:103BC000014800F00CB800BF5801002051F8043C37
:103BD000181F002BBCBF0B58C018704770477047A8
:103BE000044A05491368002B08BF0B4618441060AF
:103BF000184670475C01002060010020F8B500BF46
:103C0000F8BC08BC9E467047F8B500BFF8BC08BCBD
:083C10009E4670470000000011
:103C18004661756C74792043656C6C2042616C61F7
:103C28006E63696E67204D6F73666574733A2025FD
:103C38006400000043414E2048414E445348414BE4
:103C480045205355434345535346554C21000000E6
:103C5800534C41564520434F4D4D554E49434154D1
:103C6800494F4E205355434345535346554C210025
:103C78004C54433239343920434F4D4D554E494306
:103C88004154494F4E205355434345535346554C91
:103C98002100000043656C6C42616C616E63696E63
:103CA8006720544553542053554343455353465571
:103CB8004C210000454550524F4D20544553542047
:103CC8005355434345535346554C2100434F4E5497
:103CD8004143544F52204D4F534645545320544569
:103CE8005354205355434345535346554C210000E4
:103CF8004841524457415245205445535420535546
:103D0800434345535346554C2100000057414954FD
:103D1800494E4720464F52205445535420494E504F
:103D280055542100000000000000000001020304B7
:103D3800060708090000000001020304A08601002C
:103D4800400D0300801A060000350C0040420F00A9
:103D580080841E0000093D0000127A000024F4004F
:103D680000366E010048E801006CDC02232D302B80
:103D78002000686C4C006566674546470030313264
:103D880033343536373839414243444546003031BB
:103D9800323334353637383961626364656600001A
:083DA80008C5FF7F01000000C7
:083DB000B5010008000000004D
:083DB800910100080000000069
:103DC000070100001000000000093D001000002065
:103DD00000000000000000000000000000000000E3
:103DE00000000000000000000000000000000000D3
:103DF00000000000000000000000000000000000C3
:103E000000000000000000000000000000000000B2
:103E100000000000000000000000000000000000A2
:103E20000000000000000000000000000000000092
:040000050800325964
:00000001FF
